:100000000C94DF000C9407010C9407010C94070179
:100010000C9407010C9407010C9407010C94070140
:100020000C9407010C9407010C9407010C94070130
:100030000C9407010C9407010C9407010C94070120
:100040000C94C5040C9407010C94D1030C94AB03DD
:100050000C9407010C9407010C9407010C94070100
:100060000C940F050C94070100407A10F35A00A07D
:10007000724E18090010A5D4E80000E87648170071
:1000800000E40B54020000CA9A3B000000E1F505B1
:10009000000080969800000040420F000000A086FB
:1000A00001000000102700000000E803000000002D
:1000B0006400000000000A000000000001000000D1
:1000C00000002C76D888DC674F0823DFC1DFAE59EB
:1000D000E1B1B796E5E3E453C63AE651997696E87E
:1000E000E6C28426EB898C9B62ED407C6FFCEFBC02
:1000F0009C9F40F2BAA56FA5F490055A2AF75C932D
:100100006B6CF9676DC11BFCE0E40D47FEF520E662
:10011000B500D0ED902E0300943577050080841E45
:10012000080000204E0A000000C80C333333330FA0
:10013000986E12831141EF8D2114893BE65516CF3D
:10014000FEE6DB18D1844B381BF77C1D901DA4BB49
:10015000E424203284725E228100C9F124ECA1E5FE
:100160003D2700000000240027002A0000000000B6
:10017000250028002B0000000008000201000003F9
:100180000407000000000000000000000000230041
:1001900026002900040404040404040402020202E8
:1001A000020203030303030301020408102040803A
:1001B0000102040810200102040810206D0E112411
:1001C0001FBECFEFD8E0DEBFCDBF23E0A8E6B1E091
:1001D00001C01D92A531B207E1F711E0A0E0B1E046
:1001E000E0E1FCE202C005900D92A836B107D9F714
:1001F00010E0CFEDD0E004C02197FE010E94F4137F
:10020000CE3DD107C9F70E943E090C9406160C9406
:1002100000008091CC0290E02091CD02821B9109D8
:100220000895CF92DF92EF92FF920F931F93CF9397
:10023000DF936C017A018B01C0E0D0E0CE15DF05C1
:1002400089F0D8016D918D01D601ED91FC9101905D
:10025000F081E02DC6010995892B11F47E0102C0C1
:100260002196ECCFC701DF91CF911F910F91FF90A5
:10027000EF90DF90CF900895FC01538D448D252F92
:1002800030E0842F90E0821B930B541710F0CF9630
:10029000089501970895FC01918D828D981761F062
:1002A000828DDF01A80FB11D5D968C91928D9F5FAD
:1002B0009F73928F90E008958FEF9FEF0895FC0158
:1002C000918D828D981731F0828DE80FF11D858D0B
:1002D00090E008958FEF9FEF0895FC01918D228D9E
:1002E000892F90E0805C9F4F821B91098F73992723
:1002F00008958DE292E00E946D0121E0892B09F4BE
:1003000020E0822F0895FC01848DDF01A80FB11D2C
:10031000A35ABF4F2C91848D90E001968F7399273B
:10032000848FA689B7892C93A089B1898C91806428
:100330008C93938D848D981306C00288F389E02DE9
:1003400080818F7D80830895EF92FF920F931F939A
:10035000CF93DF93EC0181E0888F9B8D8C8D981378
:1003600005C0E889F989808185FD24C0F62E0B8DB2
:1003700010E00F5F1F4F0F731127E02E8C8DE812D6
:100380000CC00FB607FCFACFE889F989808185FF98
:10039000F5CFCE010E948301F1CF8B8DFE01E80FD6
:1003A000F11DE35AFF4FF0820B8FEA89FB898081B0
:1003B000806207C0EE89FF896083E889F9898081BE
:1003C0008064808381E090E0DF91CF911F910F9155
:1003D000FF90EF900895CF93DF93EC01888D8823F1
:1003E000C9F0EA89FB89808185FD05C0A889B989A2
:1003F0008C9186FD0FC00FB607FCF5CF808185FF7D
:10040000F2CFA889B9898C9185FFEDCFCE010E94EA
:100410008301E7CFDF91CF91089580E090E0892BB1
:1004200029F00E94790181110C94000008953FB7D2
:10043000F8948091B0019091B101A091B201B09176
:10044000B30126B5A89B05C02F3F19F00196A11D49
:10045000B11D3FBFBA2FA92F982F8827820F911D5A
:10046000A11DB11DBC01CD0142E0660F771F881FA1
:10047000991F4A95D1F7089585ED8093BC0080912E
:10048000BC0084FDFCCF10920A02089540918A01BD
:10049000262F30E0240F311D21323105DCF420916C
:1004A0000A022430C9F4FC0180E090E0861758F479
:1004B00030918A012191DC01A859BE4FA30FB11DD3
:1004C0002C930196F3CF80918A01680F60938A0183
:1004D00080E0089581E0089582E008950895E09114
:1004E000CD028091CC02E81730F4F0E0EC53FE4FDF
:1004F000808190E008958FEF9FEF08959091CD0255
:100500008091CC02981750F4E92FF0E0EC53FE4FA5
:10051000208130E09F5F9093CD0202C02FEF3FEF2C
:10052000C9010895CF92DF92EF92FF920F931F932C
:10053000CF93DF937C01262F972F8A0180910B02A6
:10054000882391F0C62FD72F6E01C40ED51ECC156F
:10055000DD0571F06991D701ED91FC910190F08179
:10056000E02DC7010995F3CF642F822F0E94460228
:10057000C801DF91CF911F910F91FF90EF90DF9015
:10058000CF900895CF93DF931F92CDB7DEB76983E5
:1005900020910B022223D1F02091CA02203240F098
:1005A00021E030E0FC013383228380E090E015C03D
:1005B0008091CB02E82FF0E0E45FFD4F99819083BA
:1005C0008F5F8093CB028093CA0205C061E0CE01A9
:1005D00001960E94460281E090E00F90DF91CF915A
:1005E0000895089580E090E008950E94F1150F931A
:1005F0001F93CF93DF93EC0188819981009729F0B5
:100600002A813B812617370788F48B016F5F7F4F64
:100610000E942715009761F0998388831B830A83C2
:100620002C813D81232B11F4FC01108281E001C05B
:1006300080E0DF91CF911F910F910895EF92FF928B
:100640000F931F93CF93DF93FC01248135816115B4
:10065000710511F480E019C041155105A9F07B0125
:10066000EC018A01020F131FB8010E94F7028823D0
:1006700089F3288139818C819D81B701820F931F75
:100680000E94FF151D830C8381E0DF91CF911F91A4
:100690000F91FF90EF900895CF93DF93EC01888145
:1006A0009981009711F00E948F14198218821D827F
:1006B0001C821B821A82DF91CF910895CF92DF9224
:1006C000EF92FF920F931F93CF93DF93CDB7DEB7D7
:1006D000A1970FB6F894DEBF0FBECDBF7C01CB0152
:1006E000BA01F701118210821382128215821482DC
:1006F00042E0420F8E010F5F1F4F0E94EA0E6C0115
:10070000009771F0FC0101900020E9F731978F010B
:10071000081B190BB801C7010E94F702811104C020
:10072000C7010E944C0308C0F70115830483B6017A
:10073000808191810E94FF15A1960FB6F894DEBFCB
:100740000FBECDBFDF91CF911F910F91FF90EF9022
:10075000DF90CF9008951F920F920FB60F92112441
:100760002F933F934F935F936F937F938F939F93B9
:10077000AF93BF93EF93FF938DE292E00E948301CA
:10078000FF91EF91BF91AF919F918F917F916F9169
:100790005F914F913F912F910F900FBE0F901F903F
:1007A00018951F920F920FB60F9211242F938F93CB
:1007B0009F93EF93FF93E0913D02F0913E02808181
:1007C000E0914302F091440282FD12C09081809139
:1007D00046028F5F8F7320914702821751F0E0919C
:1007E0004602F0E0E35DFD4F958F8093460201C025
:1007F0008081FF91EF919F918F912F910F900FBE6C
:100800000F901F90189590E0FC01EA58FE4F34912C
:10081000FC01E855FE4F2491FC01EC56FE4FE4919B
:10082000EE2309F43BC0332339F1333091F038F42F
:100830003130A9F0323001F584B58F7D12C03730E8
:1008400091F03830A1F03430B9F4809180008F7D80
:1008500003C0809180008F77809380000DC084B5A5
:100860008F7784BD09C08091B0008F7703C08091DD
:10087000B0008F7D8093B000F0E0EE0FFF1FE459D1
:10088000FE4FA591B4918FB7F894EC91611103C01C
:1008900020952E2301C02E2B2C938FBF0895CF932C
:1008A000DF9390E0FC01E855FE4F2491FC01EC56EB
:1008B000FE4F8491882361F190E0880F991FFC011D
:1008C000EE59FE4FC591D491FC01E459FE4FA5911C
:1008D000B491611109C09FB7F89488812095822353
:1008E0008883EC912E230BC0623061F49FB7F8949B
:1008F0003881822F809583238883EC912E2B2C9333
:100900009FBF06C08FB7F894E8812E2B28838FBF36
:10091000DF91CF9108958F929F92AF92BF92CF9225
:10092000DF92EF92FF926B017C010E9417024B0154
:100930005C01C114D104E104F104F1F00E9417023A
:10094000DC01CB0188199909AA09BB09883E9340AB
:10095000A105B10570F321E0C21AD108E108F10840
:1009600088EE880E83E0981EA11CB11CC114D1042E
:10097000E104F10419F7DDCFFF90EF90DF90CF9005
:10098000BF90AF909F908F9008951F920F920FB6D7
:100990000F9211242F933F938F939F93AF93BF9305
:1009A0008091C0019091C101A091C201B091C30199
:1009B0003091AF0123E0230F2D3720F40196A11DC4
:1009C000B11D05C026E8230F0296A11DB11D20937D
:1009D000AF018093C0019093C101A093C201B09375
:1009E000C3018091B0019091B101A091B201B09189
:1009F000B3010196A11DB11D8093B0019093B10187
:100A0000A093B201B093B301BF91AF919F918F9129
:100A10003F912F910F900FBE0F901F9018951F922E
:100A20000F920FB60F9211242F933F934F935F9322
:100A30006F937F938F939F93AF93BF93EF93FF93A6
:100A40008091B900887F803609F49CC068F58832AF
:100A500009F45BC090F4803109F454C038F4882361
:100A600009F4F6C0883009F44DC0F6C0883109F4A5
:100A70004CC0803209F45DC0EFC0803409F468C016
:100A800048F4803309F455C0883309F0E5C08093F9
:100A90000802D8C0803509F44FC0883509F45DC01C
:100AA000883409F0D9C0D6C0883909F4C7C0A8F481
:100AB000883709F467C038F4883609F463C0803792
:100AC00009F460C0C9C0883809F4B8C0803909F495
:100AD0005FC0803809F0C0C05BC0803B09F486C0AD
:100AE00038F4803A09F466C0883A09F47FC0B4C08B
:100AF000803C09F4A7C0883C09F4A4C0883B09F4F1
:100B00008AC0AAC08091E50110C09091070280912F
:100B10000602981770F5E091070281E08E0F80932E
:100B20000702F0E0EA51FE4F80818093BB0085EC24
:100B300086C0809308028EC0E091070281E08E0F8C
:100B4000809307028091BB00F0E0EA51FE4F808362
:100B500090910702809106026EC0E091070281E049
:100B60008E0F809307028091BB00F0E0EA51FE4FA8
:100B700080838091090281116DC081E08093E4013E
:100B800084EA61C083E080930A021092AE01CFCF65
:100B90008091AE01803208F051C0E091AE0181E059
:100BA0008E0F8093AE018091BB00F0E0E257FE4FC4
:100BB0008083BDCF85EC8093BC0010920A028091A7
:100BC000AE01803230F4E091AE01F0E0E257FE4F2A
:100BD00010826091AE0170E0E0918C01F0918D0186
:100BE0008EE891E009951092AE0136C084E08093C2
:100BF0000A0210928B0110928A01E0918801F09113
:100C00008901099580918A01811105C081E0809355
:100C10008A0110926801E0918B0181E08E0F809330
:100C20008B01F0E0E859FE4F80818093BB009091EA
:100C30008B0180918A01981708F479CF85E8809319
:100C4000BC000AC085EC8093BC0010920A0204C06C
:100C5000109208020E943C02FF91EF91BF91AF9168
:100C60009F918F917F916F915F914F913F912F91C4
:100C70000F900FBE0F901F90189510920A0281E0FE
:100C8000809309021092E40161E082E10E94030472
:100C900061E083E10E940304E9EBF0E080818E7F54
:100CA000808380818D7F808388E48093B80085E491
:100CB0008093BC0008958F929F92AF92BF92CF9283
:100CC000DF92EF92FF92CF93DF93A09106038823E8
:100CD00011F03A2F01C030E08091070390E0880FB7
:100CE000991F86579E4FC0900C03D0900D03E09043
:100CF0000E03F0900F0340E050E0BA01FC01C591F3
:100D0000D49128812A2323130FC04A015B012FEFBE
:100D1000821A920AA20AB20A4C155D056E057F0579
:100D200038F4B501A401EACF342F252FCB0104C03C
:100D300030E020E080E090E0632F722FDF91CF91D0
:100D4000FF90EF90DF90CF90BF90AF909F908F90EB
:100D50000895009769F0FC0101900020E9F73197B0
:100D6000AF01481B590BBC018DE292E00C941101BC
:100D700080E090E008952091CA0290912C022132E7
:100D800008F04AC080910A028111FCCF32E0309312
:100D90000A0231E0309309023FEF309308021092CB
:100DA000070220930602ACE0B2E046EE51E0FA0101
:100DB0003E2F341B321718F43D913193F9CF109226
:100DC000E5012091E501990F922B9093E501909117
:100DD000E401913061F41092E4019091E501909367
:100DE000BB009091BC0093FDF8CF95EC01C095EE4F
:100DF0009093BC0090910A029230E1F39091080226
:100E00009F3F79F080910802803241F08091080282
:100E1000803331F084E005C081E003C082E001C08E
:100E200083E01092CB021092CA0210920B02089536
:100E300090910A029111FCCF613208F060E291E0DA
:100E400090930A02909309022FEF209308021092C8
:100E50000702260F209306029093E5019091E50189
:100E6000880F892B8093E5018091E401813061F442
:100E70001092E4018091E5018093BB008091BC0059
:100E800083FDF8CF85EC01C085EE8093BC00809196
:100E90000A028130E1F380910702861710F4609115
:100EA0000702A6EEB1E024EC31E0F9018E2F821B9F
:100EB000861718F48D918193F9CF1092CD0260932B
:100EC000CC02862F0895CF93DF93C1E0C0930B022D
:100ED00097E790932C021092CB021092CA02682FCF
:100EE0008CED92E00E94C2020E94BB06C0930B02EE
:100EF0001092CB021092CA0262E070E087E790E0A5
:100F00000E9418078CED92E00E947E02D82F80E0AC
:100F1000C82F8CED92E00E947E02C82BD92B0E9434
:100F2000BB06CE01DF91CF910895CF93C1E0C0936E
:100F30000B0297E790932C021092CB021092CA02F8
:100F4000682F8CED92E00E94C2020E94BB06C09303
:100F50000B021092CB021092CA0261E070E087E7A8
:100F600090E00E9418078CED92E00E947E02C82F4C
:100F70000E94BB068C2FCF9108958F929F92AF92C3
:100F8000BF920F931F93CF93DF93CDB7DEB7A19797
:100F90000FB6F894DEBF0FBECDBF19A2423008F4E1
:100FA0004AE08E010F5D1F4F842E912CA12CB12C95
:100FB000A50194010E94AB13E62FB901CA010150AB
:100FC0001109EA3014F4E05D01C0E95CD801EC934A
:100FD000232B242B252B61F7C8010E94A906A1967B
:100FE0000FB6F894DEBF0FBECDBFDF91CF911F913A
:100FF0000F91BF90AF909F908F900895FC01448116
:101000005581608171818DE292E00C941101CF9342
:10101000DF93EC0141E050E06EE271E00E941E03BC
:10102000811103C0CE010E944C03CE01DF91CF910C
:101030000895CF93C82F81E080930B0287E78093B8
:101040002C021092CB021092CA0264EF8CED92E057
:101050000E94C2026C2F8CED92E00E94C202CF91DE
:101060000C94BB068EE20E94190865E070E080E0F7
:1010700090E00E948B0486EF0C946307CF92DF927E
:10108000EF92FF920F931F93CF93DF93CDB7DEB70D
:10109000C054D1400FB6F894DEBF0FBECDBF2FB7FE
:1010A000F8948091C0019091C101A091C201B091CA
:1010B000C3012FBF409108035091090360910A03B7
:1010C00070910B038C019D01041B150B260B370B34
:1010D000B901A801403D57406105710518F48091A0
:1010E0001003BCC08093080390930903A0930A03E4
:1010F000B0930B03109203031092020310920103AA
:10110000109200031092FF0261E0809104030E949C
:1011100003046AEF70E080E090E00E948B0461E0DD
:10112000809104030E944F0460E0809104030E94B8
:10113000030464E170E080E090E00E948B04F89486
:1011400061E0809104030E9403048BE990E0019721
:10115000F1F762E0809104030E944F0483E290E083
:101160000197F1F780E00E945B06672B682B692BE3
:1011700021F41092100378943EC081E00E945B0637
:10118000672B682B692BA9F38E010F5F1F4F6E0130
:101190002FEBC21A2EEFD20A780180E00E945B0684
:1011A000F701608371838283938381E00E945B06F1
:1011B000F7016483758386839783F8E0EF0EF11C53
:1011C000EC14FD0451F7789420E030E0F801408100
:1011D000518162817381C480D580E680F78041159A
:1011E00051056105710529F0C114D104E104F10430
:1011F00021F41092100380E031C0F90183E0F595ED
:10120000E7958A95E1F7E150FD4F8081880F4C15F5
:101210005D056E057F0508F4816080832F5F3F4F79
:10122000085F1F4F2832310589F62091030330E013
:101230004091FF028091000390E0840F911D409146
:101240000103840F911D40910203840F911D992782
:101250002817390771F681E080931003C05CDE4FD8
:101260000FB6F894DEBF0FBECDBFDF91CF911F91B7
:101270000F91FF90EF90DF90CF900895CF93DF9381
:10128000CDB7DEB7AD970FB6F894DEBF0FBECDBFBA
:10129000789484B5826084BD84B5816084BD85B551
:1012A000826085BD85B5816085BD80916E0081605D
:1012B00080936E0010928100809181008260809303
:1012C0008100809181008160809381008091800005
:1012D0008160809380008091B10084608093B10030
:1012E0008091B00081608093B00080917A0084602A
:1012F00080937A0080917A00826080937A00809156
:101300007A00816080937A0080917A00806880936F
:101310007A001092C100E0913D02F0913E0282E01D
:101320008083E0913902F0913A021082E0913B0211
:10133000F0913C028FEC808310924502E0914102D3
:10134000F091420286E08083E0913F02F0914002FA
:10135000808180618083E0913F02F0914002808132
:1013600088608083E0913F02F09140028081806834
:101370008083E0913F02F091400280818F7D8083E5
:1013800062E0809104030E944F0480E398EFAFEF86
:10139000BFEF8093080390930903A0930A03B093CF
:1013A0000B0383E08093E8021092CD021092CC02EE
:1013B0001092CB021092CA020E943D0680ED0E945C
:1013C0009507853509F080C48AEA0E9463079093E7
:1013D000EA028093E9028CEA0E9463079093EC0290
:1013E0008093EB028EEA0E9463079093EE02809353
:1013F000ED0280EB0E9463079093FA028093F9025A
:1014000082EB0E9463079093FC028093FB0284EBC3
:101410000E9463079093FE028093FD0286EB0E9478
:1014200063079093F0028093EF0288EB0E946307BA
:101430009093F2028093F1028AEB0E9463079093EB
:10144000F4028093F3028CEB0E9463079093F60200
:101450008093F5028EEB0E9463079093F8028093CD
:10146000F70284EB91E027E0280F2DA7E8E02E2E6D
:10147000312C31E030930B0248E640932C0210925D
:10148000CB021092CA0260E08CED92E00E94C20290
:101490000E94BB06882341F18091B401982F929558
:1014A0009F705AEF959F800D11248093D4028091F4
:1014B000B501982F92959F70959F800D1124809370
:1014C000D3028091B60186FF28C0982F9F71292FE3
:1014D00022952F70EAEF2E9F900D11249093D20247
:1014E00080728093D60225C067E070E088E690E0C5
:1014F0000E9418079091CC028091CD029817F1F3C9
:1015000004EB11E08CED92E00E947E02D8018D93F5
:101510008D01BDA5B013F6CFBFCF8F73982F9295D5
:101520009F70FAEF9F9F800D11248093D20210923A
:10153000D6028091B701982F92959F702AEF929FC3
:10154000800D11248093D5028091B801982F929537
:101550009F70929F800D11248093D1023091B90128
:10156000832F82958F70432F829F400D11244093CB
:10157000D0029091BA018091DB02292F22952F7021
:101580005AEF259F900D1124292FA4E68A9FC001B0
:101590001124820F911D37FF02C08C599F4F9093E9
:1015A000CF028093CE020E9432084C01A12CB12CB4
:1015B0008091E8028295880F880F807C8C5C0E9465
:1015C00019088091E802811105C065E070E080E0B3
:1015D00090E012C0813029F468E070E080E090E093
:1015E0000BC0823029F46EE070E080E090E004C02F
:1015F0006AE170E080E090E00E948B0486EF0E9438
:1016000063072C01612C712C762C652C542C4424FE
:1016100088EF0E949507A3019201282B29A33AA3E2
:101620004BA35CA31091E8028091FD029091FE0211
:10163000A5019401281B390B41095109A091FB0216
:10164000B091FC020E946B124B015C014FE0B5941B
:10165000A794979487944A95D1F76091F502709179
:10166000F602CB01770FAA0BBB0BBC01CD015BE0EF
:10167000660F771F881F991F5A95D1F72091F7029F
:101680003091F8026901330FEE08FF08A5019401BB
:101690002C0D3D1D4E1D5F1D0E94CD13820E931E0D
:1016A000A41EB51E30EA831A3FE0930AA108B108D0
:1016B000A5019401C501B4010E949B136B017C013B
:1016C0006CE0F594E794D794C7946A95D1F7E091CC
:1016D000E902F091EA02A091ED02B091EE020E94BF
:1016E000EC132B013C017DE075946794579447946B
:1016F0007A95D1F7A091EF02B091F002A70196017F
:101700000E94EC13BB2797FDB095AB2F840D951D60
:10171000A61DB71D0296A11DB11D02E0B595A795A6
:10172000979587950A95D1F79C01AD0130584F4F99
:101730005F4FA091F902B091FA020E946B122B0147
:101740003C018FE076946794579447948A95D1F73B
:10175000C101811B910929A13AA14BA15CA104C03F
:1017600056954795379527958A95D2F729A33AA399
:101770004BA35CA3CF01FF0FAA0BBB0B9C01AD01D8
:1017800092E0220F331F441F551F9A95D1F72DA3C6
:101790003EA34FA358A7A091F102B091F202A70176
:1017A00096010E94EC139B01AC016BE055954795A7
:1017B000379527956A95D1F729A73AA74BA75CA734
:1017C000A091EB02B091EC02A50194010E94EC13F0
:1017D000DC01CB017BE0B595A795979587957A9528
:1017E000D1F729A53AA54BA55CA5820F931FA41F8D
:1017F000B51F2DA13EA14FA158A5820F931FA41F75
:10180000B51F012E04C0880F991FAA1FBB1F0A9481
:10181000D2F7BC01CD016E5F7F4F8F4F9F4F24E009
:1018200030E040E050E00E94CD1389A19AA1ABA125
:10183000BCA1821B930BA40BB50B9C01AD0160E511
:1018400073EC80E090E004C0969587957795679556
:101850001A95D2F70E949B1397FD0BC0660F771F56
:10186000881F991FA30192010E94AB1349015A01DD
:101870000AC0A30192010E94AB1349015A01880CCE
:10188000991CAA1CBB1C9927B7FC9A958B2D7A2D05
:10189000692D9B01AC010E949B139B01AC01AEED35
:1018A000BBE00E946B122C01772457FC7094672CCC
:1018B000A3E4B3EEA50194010E94EF13BB2797FDAB
:1018C000B095AB2F840D951DA61DB71D8153914F6B
:1018D000AF4FBF4F14E0B595A795979587951A958B
:1018E000D1F7BC01CD01680D791D8A1D9B1D0E9499
:1018F000721120E030E048EC52E40E94291360931A
:10190000BC017093BD018093BE019093BF010E9402
:101910003E088823A9F1809105038B3039F180F1CD
:101920008551823068F56091FF0270E080E090E0C0
:101930000E94701120E030E040E853E40E94AD11B5
:101940004B015C016091000370E080E090E00E9438
:1019500072119B01AC01C501B4010E94BD122DECB6
:101960003CEC4CEC5DE30E94AD1107C06091FF02BE
:1019700070E080E090E00E9470112B013C0106C0F5
:10198000412C512C50EC652E5FE7752E0E943E08CD
:10199000882309F440C0809105038B3029F0D8F1E9
:1019A0008551823058F037C06091010370E080E0CB
:1019B00090E00E9470114B015C0133C01091010353
:1019C000612F6F7770E080E090E00E94721120E05C
:1019D00030E040E853E40E94AD114B015C0160919E
:1019E000020370E080E090E00E9472119B01AC0164
:1019F000C501B4010E94BD122DEC3CEC4CEC5DE342
:101A00000E94AD114B015C0117FF0BC0B7FAB094F7
:101A1000B7F8B09406C0812C912C40ECA42E4FE76F
:101A2000B42E8091D2028A3020F48AE291E00E94A2
:101A3000A9066091D20270E080E090E04AE00E9446
:101A4000BD078CE291E00E94A9068091D3028A3002
:101A500020F48AE291E00E94A9066091D30270E02E
:101A600080E090E04AE00E94BD078CE291E00E9495
:101A7000A9068091D4028A3020F48AE291E00E9483
:101A8000A9066091D40270E080E090E04AE00E94F4
:101A9000BD070E943208AC0160E070E08091FD0259
:101AA0009091FE029A01AB01281B390B41095109A3
:101AB000A091FB02B091FC020E946B127B018C0191
:101AC0008FE015950795F794E7948A95D1F7609183
:101AD000F5027091F602CB01770FAA0BBB0BBC018C
:101AE000CD012BE0660F771F881F991F2A95D1F72C
:101AF0002091F7023091F802032E000C440B550B95
:101B00002E0D3F1D401F511F0E94CD13D801C7014C
:101B1000820F931FA41FB51F0896A11DB11DBC0104
:101B2000CD0134E095958795779567953A95D1F7EE
:101B30000E94721120E030E040E251E40E9429133B
:101B400069A37AA38BA39CA322E0B501A401CE01D3
:101B500045960E945E031C8E1B8E1E8E1D8E18A243
:101B60001F8E61E070E0CE014B960E94F70281115A
:101B700005C0CE014B960E944C030AC081E090E064
:101B800098A38F8F6EE271E08B8D9C8D0E94FF1564
:101B9000498D5A8D6D897E89CE014B960E941E0318
:101BA000811104C0CE014B960E944C03CE014B968E
:101BB0000E9407085C018E010F5F1F4F22E044E086
:101BC00069A17AA18BA19CA10E94EA0EFC0101905F
:101BD0000020E9F73197AF01481B590BBC01C50143
:101BE0000E941E03811103C0C5010E944C03C50160
:101BF0000E94FE078B8D9C8D0E948F148D899E897B
:101C00000E948F1422E0B301A201CE0101960E942E
:101C10005E031E8A1D8A188E1F8A1A8E198E61E035
:101C200070E0CE0145960E94F702811105C0CE01F9
:101C300045960E944C030AC081E090E09A8F898FFC
:101C40006EE271E08D899E890E94FF154D815E8153
:101C500069817A81CE0145960E941E03811104C0DC
:101C6000CE0145960E944C03CE0145960E9407087E
:101C70000E94FE078D899E890E948F1489819A8116
:101C80000E948F144091BC015091BD016091BE0132
:101C90007091BF0122E0CE0101960E945E03CE0149
:101CA00001960E94FE0780E391E00E94A9068981C7
:101CB0009A810E948F1468E873E180E090E00E94AE
:101CC0008B040E940D02D5CB83E391E00E94A9060C
:101CD00080E391E00E94A906FFCFCF92DF92EF92BE
:101CE000FF92EDE2F2E01382128288EEC82E83E0CA
:101CF000D82EE12CF12CC482D582E682F7828AE0CC
:101D000091E09183808385EC90E09587848784ECD3
:101D100090E09787868780EC90E0918B808B81ECB8
:101D200090E0938B828B82EC90E0958B848B86EC99
:101D300090E0978B868B118E128E138E148EEEECA4
:101D4000F2E01182108212821382148215821682AE
:101D50001782128611861486138684E18587109275
:101D6000CD021092CC021092CB021092CA020E94B5
:101D70003D06ECEDF2E013821282C482D582E68247
:101D8000F7828CE191E091838083AFEFB2E082E053
:101D900015968C93159786E116968C931697EAEA1A
:101DA000F1E0E4911796EC931797E6E9F1E0E491FE
:101DB0001896EC93189740E85EE360E070E01D969B
:101DC0004D935D936D937C935097FF90EF90DF90D0
:101DD000CF900895EF920F931F93CF93DF93E80175
:101DE00047FD02C034E001C034E1E42F440FFF0B93
:101DF000F7FF03C0F195E195F109E32E022F2E2F95
:101E0000AE010E940A0FCE01DF91CF911F910F9179
:101E1000EF9008954F925F926F927F929F92AF9250
:101E2000BF92CF92DF92EF92FF920F931F93CF93C7
:101E3000DF93CDB7DEB729970FB6F894DEBF0FBE9C
:101E4000CDBF6A01122FB02E2BE3201720F0FF2404
:101E5000F394F00E02C0BCE3FB2E0F2D27E0AE0181
:101E60004F5F5F4F0E949810AC018981982F997045
:101E7000913031F0E1FC06C0E0FE06C090E205C002
:101E80009DE203C09BE201C090E0EE2DE07183FF74
:101E90003CC0911102C083E001C084E0811718F4B6
:101EA000212F281B01C020E0E1110BC0F601822F79
:101EB00030E2882319F031938150FBCFC20ED11C40
:101EC00020E0992329F0D6019C93F60131966F0109
:101ED000C6010396E2FE0AC03EE4D6013C9341E40B
:101EE00011964C93119712963C9306C03EE6F6016C
:101EF000308341E641833283FC01322F40E23323B9
:101F000009F442C041933150FACF82FF44C091118D
:101F100002C083E001C084E0811718F4212F281B40
:101F200001C020E0E1110BC0F601822F30E28823CE
:101F300019F031938150FBCFC20ED11C20E09923C0
:101F400029F0D6019C93F60131966F01C6010396E4
:101F5000E2FE0BC039E4D6013C933EE411963C937B
:101F6000119736E412963C9307C039E6F6013083A8
:101F70003EE6318336E63283FC01322F40E23323E2
:101F800019F041933150FBCFFC01E20FF11D10829B
:101F90008EEF9FEFB7C0F1E0911101C0F0E06F2F1D
:101FA00070E01416150624F49A012F5F3F4F02C00B
:101FB00021E030E0260F371FBB2029F06B2D70E0A9
:101FC0006F5F7F4F02C060E070E0260F371F612F08
:101FD00070E0261737071CF4121B212F01C020E0E8
:101FE0003E2D387159F4D601322F60E2332319F0B7
:101FF0006D933150FBCFC20ED11C20E0FF2331F096
:10200000D6019C93B6016F5F7F4F6B01E1110BC04E
:10201000F601922F30E3992319F031939150FBCFC1
:10202000C20ED11C20E09F2D940F3A81782F707141
:10203000A72E84FF03C0313309F49150191624F4FC
:10204000993018F098E001C091E0E42F852F57FFF8
:1020500002C0E0E080E06E2F782FE0E0F0E0AEE23A
:102060009A2E3A01691A71082A01461A570A0B2D4D
:1020700010E01195019511096F3F8FEF780729F452
:10208000D6019C92C60101966C014617570784F051
:10209000661677066CF47F01E40CF51CA1E0B0E055
:1020A000AC0FBD1FEA0EFB1ED7011196BC9002C0FB
:1020B00090E3B92E615071093196C60101967C01F9
:1020C0006017710724F0D601BC926C01D5CF64175C
:1020D000750741F4363320F4353321F4A11002C0E2
:1020E00081E3B82EF601B082F701822F90E28823B7
:1020F00019F091938150FBCFF701E20FF11D10828F
:1021000080E090E029960FB6F894DEBF0FBECDBFF9
:10211000DF91CF911F910F91FF90EF90DF90CF90C3
:10212000BF90AF909F907F906F905F904F90089579
:10213000283008F027E03327DA01990F311D87FD99
:10214000916000966105710539F432602E5F3D9310
:1021500030E32A95E1F708959F3F30F0803871050C
:10216000610509F03C5F3C5F3D93913008F0806869
:10217000911DDF93CF931F930F93FF92EF92192F2F
:10218000987F9695E92F96959695E90FFF27EE5340
:10219000FF4F99273327EE24FF24A701E70105907D
:1021A0000894079428F4360FE71EF81E491F511DA6
:1021B000660F771F881F991F0694A1F70590079453
:1021C00028F4E70EF81E491F561FC11D770F881F00
:1021D000991F661F0694A1F70590079428F4F80E3E
:1021E000491F561FC71FD11D880F991F661F771FD4
:1021F0000694A1F70590079420F4490F561FC71FB6
:10220000D81F990F661F771F881F0694A9F784911E
:102210001095177041F0D695C79557954795F79447
:10222000E7941A95C1F7E8E6F0E0689415901591E7
:1022300035916591959105907FE27395E118F10ACA
:10224000430B560BC90BD009C0F7E10CF11E431F1D
:10225000561FC91FD01D7EF4703311F48A95E6CF46
:10226000E894015030F0080F0AF40027021708F430
:10227000202F2395022F7A3328F079E37D932A9536
:10228000E9F710C07D932A9589F60694979567958E
:10229000379517951794E118F10A430B560BC90BA4
:1022A000D00998F023957E9173957A3308F070E306
:1022B0007C932013B8F77E9170617D9330F0839505
:1022C00071E37D9370E32A95E1F71124EF90FF907D
:1022D0000F911F91CF91DF91992787FD90950895D8
:1022E000E89409C097FB3EF49095809570956195B0
:1022F0007F4F8F4F9F4F9923A9F0F92F96E9BB2766
:102300009395F695879577956795B795F111F8CFE1
:10231000FAF4BB0F11F460FF1BC06F5F7F4F8F4F4C
:102320009F4F16C0882311F096E911C0772321F042
:102330009EE8872F762F05C0662371F096E8862FDA
:1023400070E060E02AF09A95660F771F881FDAF731
:10235000880F9695879597F908950E94C0110C945F
:1023600031120E94231238F00E942A1220F0952385
:1023700011F00C941A120C94201211240C94651272
:102380000E94421270F3959FC1F3950F50E0551FC4
:10239000629FF001729FBB27F00DB11D639FAA27BA
:1023A000F00DB11DAA1F649F6627B00DA11D661F09
:1023B000829F2227B00DA11D621F739FB00DA11D2A
:1023C000621F839FA00D611D221F749F3327A00DE4
:1023D000611D231F849F600D211D822F762F6A2F80
:1023E00011249F5750409AF0F1F088234AF0EE0FE5
:1023F000FF1FBB1F661F771F881F91505040A9F712
:102400009E3F510580F00C941A120C9465125F3FA8
:10241000E4F3983ED4F3869577956795B795F7954D
:10242000E7959F5FC1F7FE2B880F911D96958795C5
:1024300097F9089597F99F6780E870E060E0089544
:102440009FEF80EC089500240A94161617061806CC
:102450000906089500240A941216130614060506A8
:102460000895092E0394000C11F4882352F0BB0F39
:1024700040F4BF2B11F460FF04C06F5F7F4F8F4F9C
:102480009F4F089557FD9058440F551F59F05F3FD7
:1024900071F04795880F97FB991F61F09F3F79F086
:1024A00087950895121613061406551FF2CF469508
:1024B000F1DF08C0161617061806991FF1CF86958A
:1024C0007105610508940895E894BB27662777276E
:1024D000CB0197F908950E94AD12A59F900DB49F6E
:1024E000900DA49F800D911D112408952F923F926D
:1024F0004F925F926F927F928F929F92AF92BF9214
:10250000CF92DF92EF92FF920F931F93CF93DF93BF
:10251000CDB7DEB7CA1BDB0B0FB6F894DEBF0FBE1C
:10252000CDBF09942A88398848885F846E847D8469
:102530008C849B84AA84B984C884DF80EE80FD806B
:102540000C811B81AA81B981CE0FD11D0FB6F894E1
:10255000DEBF0FBECDBFED010895A29FB001B39FB6
:10256000C001A39F700D811D1124911DB29F700D9C
:10257000811D1124911D08955058BB27AA270E9440
:10258000D4120C9431120E94231238F00E942A12A5
:1025900020F039F49F3F19F426F40C9420120EF425
:1025A000E095E7FB0C941A12E92F0E94421258F3AF
:1025B000BA17620773078407950720F079F4A6F528
:1025C0000C9464120EF4E0950B2EBA2FA02D0B0183
:1025D000B90190010C01CA01A0011124FF27591B68
:1025E00099F0593F50F4503E68F11A16F040A22F6E
:1025F000232F342F4427585FF3CF469537952795DF
:10260000A795F0405395C9F77EF41F16BA0B620BDD
:10261000730B840BBAF09150A1F0FF0FBB1F661F24
:10262000771F881FC2F70EC0BA0F621F731F841F67
:1026300048F4879577956795B795F7959E3F08F08D
:10264000B0CF9395880F08F09927EE0F979587954F
:1026500008950E943D130C9431120E942A1258F0E2
:102660000E94231240F029F45F3F29F00C941A12C3
:1026700051110C9465120C9420120E94421268F3BE
:102680009923B1F3552391F3951B550BBB27AA272B
:1026900062177307840738F09F5F5F4F220F331F65
:1026A000441FAA1FA9F335D00E2E3AF0E0E832D02D
:1026B00091505040E695001CCAF72BD0FE2F29D030
:1026C000660F771F881FBB1F261737074807AB0702
:1026D000B0E809F0BB0B802DBF01FF2793585F4F77
:1026E0003AF09E3F510578F00C941A120C94651242
:1026F0005F3FE4F3983ED4F3869577956795B79559
:10270000F7959F5FC9F7880F911D9695879597F963
:102710000895E1E0660F771F881FBB1F62177307DC
:102720008407BA0720F0621B730B840BBA0BEE1FF1
:1027300088F7E0950895DB018F939F930E946B12B9
:10274000BF91AF91A29F800D911DA39F900DB29F4D
:10275000900D11240895A1E21A2EAA1BBB1BFD01A6
:102760000DC0AA1FBB1FEE1FFF1FA217B307E40770
:10277000F50720F0A21BB30BE40BF50B661F771FC8
:10278000881F991F1A9469F76095709580959095A8
:102790009B01AC01BD01CF010895052E97FB1EF4EE
:1027A00000940E94E41357FD07D00E94AB1307FC6E
:1027B00003D04EF40C94E413509540953095219538
:1027C0003F4F4F4F5F4F089590958095709561955D
:1027D0007F4F8F4F9F4F0895B7FF0C946B120E944D
:1027E0006B12821B930B0895EE0FFF1F0590F4915F
:1027F000E02D0994CF93DF938230910510F482E0AD
:1028000090E0E0911303F091140320E030E0C0E089
:10281000D0E0309711F14081518148175907C0F03D
:102820004817590761F482819381209719F09B839F
:102830008A832BC0909314038093130326C0211521
:10284000310519F04217530718F49A01BE01DF0150
:10285000EF010280F381E02DDCCF2115310509F174
:10286000281B390B2430310590F412968D919C91E0
:1028700013976115710521F0FB019383828304C0D6
:102880009093140380931303FD01329644C0FD011D
:10289000E20FF31F81939193225031092D933C93C2
:1028A0003AC02091110330911203232B41F420915F
:1028B0000201309103013093120320931103209100
:1028C0000001309101012115310541F42DB73EB7CA
:1028D0004091040150910501241B350BE091110337
:1028E000F0911203E217F307A0F42E1B3F0B2817F9
:1028F000390778F0AC014E5F5F4F2417350748F079
:102900004E0F5F1F509312034093110381939193D5
:1029100002C0E0E0F0E0CF01DF91CF9108950F9386
:102920001F93CF93DF93009709F48CC0FC0132977B
:1029300013821282009113031091140301151105E3
:1029400081F420813181820F931F209111033091F6
:1029500012032817390779F5F0931203E093110356
:1029600071C0D80140E050E0AE17BF0750F4129696
:102970002D913C911397AD012115310509F1D90134
:10298000F3CF9D01DA013383228360817181860F49
:10299000971F8217930769F4EC0128813981260F6C
:1029A000371F2E5F3F4F318320838A819B81938322
:1029B0008283452B29F4F0931403E093130342C060
:1029C0001396FC93EE931297ED01499159919E0154
:1029D000240F351FE217F30771F480819181840F72
:1029E000951F029611969C938E93828193811396E4
:1029F0009C938E931297E0E0F0E0D80112968D91AF
:102A00009C911397009719F0F8018C01F6CF8D91E6
:102A10009C9198012E5F3F4F820F931F20911103CD
:102A2000309112032817390769F4309729F410926E
:102A300014031092130302C0138212821093120324
:102A400000931103DF91CF911F910F910895A0E0A2
:102A5000B0E0EDE2F5E10C947A12EC01009721F47C
:102A6000CB010E94FA13B8C0FC01E60FF71F9C01CE
:102A700022503109E217F30708F4ACC0D9010D91D7
:102A80001C91119706171707B0F00530110508F4CF
:102A90009FC0C80104978617970708F499C0025091
:102AA0001109061B170B019311936D937C93CF01B2
:102AB0000E948F148DC05B01A01AB10A4C01800ED8
:102AC000911EA0911303B091140340E050E0E12C5B
:102AD000F12C109709F44AC0A815B905D1F56D90ED
:102AE0007C901197630182E0C80ED11CCA14DB04EC
:102AF00080F1A3014A195B096A0182E0C80ED11C6A
:102B00001296BC9012971396AC91B5E0CB16D104F7
:102B100040F0B282A38351834083D9016D937C93AB
:102B20000AC00E5F1F4FC301800F911FF9019183EF
:102B30008083EB2DFA2FE114F10431F0D7011396C5
:102B4000FC93EE93129744C0F0931403E0931303A5
:102B50003FC08D919C9111974817590708F4AC011B
:102B60007D0112960D90BC91A02DB3CF80911103E1
:102B70009091120388159905E1F446175707C8F498
:102B80008091000190910101009741F48DB79EB7AB
:102B90004091040150910501841B950BE817F9073A
:102BA000C8F4F0931203E0931103F9017183608379
:102BB0000FC0CB010E94FA137C01009759F0A801C5
:102BC000BE010E94F615CE010E948F14C70104C0F9
:102BD000CE0102C080E090E0CDB7DEB7EEE00C940D
:102BE000961281E090E0F8940C940616FB01DC014B
:102BF00002C001900D9241505040D8F70895FB015A
:102C0000DC0101900D920020E1F70895F894FFCFC8
:102C100000001503800000000000A40111013C0128
:102C2000EB016D014B015F0100000000C202920246
:102C3000F2026E0209017E026F0230003A002C009F
:102C40000D0A00436F756C64206E6F742066696EA8
:102C50006420612076616C696420424D50303835C3
:102C60002073656E736F722C20636865636B2077C9
:082C70006972696E6721000022
:107800000C94343C0C94513C0C94513C0C94513CE1
:107810000C94513C0C94513C0C94513C0C94513CB4
:107820000C94513C0C94513C0C94513C0C94513CA4
:107830000C94513C0C94513C0C94513C0C94513C94
:107840000C94513C0C94513C0C94513C0C94513C84
:107850000C94513C0C94513C0C94513C0C94513C74
:107860000C94513C0C94513C11241FBECFEFD8E036
:10787000DEBFCDBF11E0A0E0B1E0ECE9FFE702C060
:1078800005900D92A230B107D9F712E0A2E0B1E065
:1078900001C01D92AD30B107E1F70E942D3D0C945F
:1078A000CC3F0C94003C982F959595959595959582
:1078B000905D8F708A307CF0282F295A8091C0000B
:1078C00085FFFCCF9093C6008091C00085FFFCCF60
:1078D0002093C6000895282F205DF0CF982F809127
:1078E000C00085FFFCCF9093C6000895EF92FF92F1
:1078F0000F931F93EE24FF2487018091C00087FD22
:1079000017C00894E11CF11C011D111D81E4E8164B
:1079100082E4F8068FE0080780E0180770F3E09132
:107920000401F091050109958091C00087FFE9CF1E
:107930008091C6001F910F91FF90EF9008950E94D3
:10794000763C982F8091C00085FFFCCF9093C600B5
:1079500091362CF490330CF09053892F089597555D
:10796000892F08951F930E949F3C182F0E949F3CCF
:107970001295107F810F1F9108951F93182F882350
:1079800021F00E94763C1150E1F71F9108951F935A
:10799000182F0E94763C803249F0809103018F5F5E
:1079A000809303018530C1F01F9108958091C0003C
:1079B00085FFFCCF84E18093C6008091C00085FFE5
:1079C000FCCF1093C6008091C00085FFFCCF80E102
:1079D0008093C6001F910895E0910401F091050184
:1079E00009951F9108950E94763C803241F0809164
:1079F00003018F5F80930301853081F008958091AA
:107A0000C00085FFFCCF84E18093C6008091C00058
:107A100085FFFCCF80E18093C6000895E0910401CA
:107A2000F09105010995089540E951E08823A1F0FE
:107A30002D9A28EE33E0FA013197F1F721503040CA
:107A4000D1F72D9828EE33E0FA013197F1F7215064
:107A50003040D1F7815061F708953F924F925F9285
:107A60006F927F928F929F92AF92BF92CF92DF924E
:107A7000EF92FF920F931F93CF93DF93000080E16B
:107A80008093C4001092C50088E18093C10086E015
:107A90008093C2005098589A259A81E00E94143D24
:107AA00024E1F22E9EE1E92E85E9D82E0FE0C02ECA
:107AB00010E1B12EAA24A394B1E49B2EA6E58A2E50
:107AC000F2E57F2EE0E26E2E79E4572E63E5462E36
:107AD00050E5352E0E94763C8033B1F18133B9F107
:107AE000803409F46FC0813409F476C0823409F41B
:107AF00085C0853409F488C0803531F1823521F1A3
:107B0000813511F1853509F485C0863509F48DC0BC
:107B1000843609F496C0843709F403C1853709F423
:107B200072C1863709F466C0809103018F5F80932C
:107B30000301853079F6E0910401F0910501099582
:107B40000E94763C803351F60E94F33CC3CF0E94E2
:107B5000763C803249F78091C00085FFFCCFF092DF
:107B6000C6008091C00085FFFCCF9092C600809136
:107B7000C00085FFFCCF8092C6008091C00085FFC9
:107B8000FCCF7092C6008091C00085FFFCCF609250
:107B9000C6008091C00085FFFCCF5092C600809146
:107BA000C00085FFFCCF4092C6008091C00085FFD9
:107BB000FCCF3092C6008091C00085FFFCCFB09210
:107BC000C60088CF0E94763C863808F4BDCF0E945C
:107BD000763C0E94F33C7ECF0E94763C803809F4CC
:107BE0009CC0813809F40BC1823809F43CC1883942
:107BF00009F48FC080E00E94C73C6CCF84E10E94F2
:107C0000BD3C0E94F33C66CF85E00E94BD3C0E94D3
:107C1000F33C60CF0E94763C809306010E94763C44
:107C2000809307010E94F33C55CF0E94763C80333D
:107C300009F41DC183E00E94BD3C80E00E94C73C66
:107C400049CF0E94763C809309020E94763C809343
:107C5000080280910C028E7F80930C020E94763C79
:107C6000853409F415C18091080290910902892B8D
:107C700089F000E010E00E94763CF801E85FFE4FDA
:107C800080830F5F1F4F80910802909109020817AF
:107C9000190788F30E94763C803209F045CF809125
:107CA0000C0280FF01C16091060170910701660F0F
:107CB000771F7093070160930601A0910802B091AD
:107CC00009021097C9F0E8E0F1E09B01AD014E0F09
:107CD0005F1FF999FECF32BD21BD819180BDFA9A17
:107CE000F99A2F5F3F4FE417F50799F76A0F7B1F4B
:107CF00070930701609306018091C00085FFFCCF5F
:107D0000F092C6008091C00085FFFCCFB092C60003
:107D1000E1CE83E00E94C73CDDCE82E00E94C73CFA
:107D2000D9CE0E94763C809309020E94763C8093D3
:107D300008028091060190910701880F991F909386
:107D40000701809306010E94763C853409F4A6C0A1
:107D500080910C028E7F80930C020E94763C8032D0
:107D600009F0B8CE8091C00085FFFCCFF092C6002C
:107D7000609108027091090261157105B9F140E046
:107D800050E080910C02A82FA170B82FB27011C0E2
:107D9000BB2309F45CC0E0910601F0910701319624
:107DA000F0930701E09306014F5F5F4F46175707B7
:107DB000E8F4AA2369F3F999FECF209106013091E6
:107DC000070132BD21BDF89A90B58091C00085FFB2
:107DD000FCCF9093C6002F5F3F4F30930701209355
:107DE00006014F5F5F4F4617570718F38091C00099
:107DF00085FDE5CE8091C00085FFF8CFE0CE81E023
:107E00000E94C73C67CE0E94763C803209F08CCE3F
:107E10008091C00085FFFCCFF092C6008091C00029
:107E200085FFFCCFE092C6008091C00085FFFCCFAB
:107E3000D092C6008091C00085FFFCCFC092C600E2
:107E40008091C00085FFFCCFB092C60043CEE09188
:107E50000601F091070194918091C00085FFFCCF4D
:107E60009093C6009CCF80E10E94C73C33CE0E9415
:107E7000763C0E94763C182F0E94763C112309F430
:107E800083C0113009F484C08FE00E94C73C22CE29
:107E900080910C02816080930C02E5CE80910C02EF
:107EA000816080930C0259CF809107018823880F4D
:107EB000880B8A2180930B02809106019091070123
:107EC000880F991F90930701809306018091080203
:107ED00080FF09C080910802909109020196909359
:107EE000090280930802F894F999FECF1127E091D6
:107EF0000601F0910701C8E0D1E08091080290915D
:107F00000902103091F40091570001700130D9F34B
:107F100003E000935700E89500915700017001308D
:107F2000D9F301E100935700E89509901990009169
:107F3000570001700130D9F301E000935700E89534
:107F40001395103498F011270091570001700130FB
:107F5000D9F305E000935700E895009157000170B0
:107F60000130D9F301E100935700E895329602976A
:107F700009F0C7CF103011F00296E5CF112480919F
:107F8000C00085FFB9CEBCCE8EE10E94C73CA2CD19
:0C7F900085E90E94C73C9ECDF894FFCF0D
:027F9C00800063
:040000030000780081
:00000001FF
